:020000040800F2
:10000000E8080020D9380008613800086338000883
:1000100000000000000000000000000000000000E0
:100020000000000000000000000000006738000829
:100030000000000000000000693800086B3800086C
:10004000A70B000800000000EB1500081B1F0008AC
:100050001B2F000863300008C73A00086B34000803
:1000600000000000D33A0008BF3B0008AD3D000887
:10007000AF3D0008B13D0008B33D0008000000009E
:10008000673200080000000000000000B53D0008D5
:10009000B73D0008B93D0008BB3D0008BD3D000864
:1000A000BF3D0008C13D0008C33D00087738000887
:1000B000A738000800B585B0604800F011FB0121A9
:1000C0008020C00200F01AFC8020800002900120F5
:1000D00002A90871032002A94871002002A98871B1
:1000E000012002A9C87102A9554800F04DFC012168
:1000F0008020C00200F002FC8020C000009001209F
:100100006946087103206946487100206946887174
:1001100001206946C8716946494800F035FC00F085
:10012000C3FC8021C900464800F08BFC05B000BD2F
:1001300080B589B200F026FD01BD424A10604248F8
:100140000170002041490870704780B54049097826
:10015000002903D03E490978012920D1394909688D
:100160003A4A1278895CC0B2814214D1374800788B
:10017000401C364908703548007833490978884270
:1001800014D100203149087032480078022101431F
:10019000304801700AE000202C49087006E02C4924
:1001A0000978022902D1C0B200F0FEFC01BD002096
:1001B00029490870012026490870704700B5244974
:1001C0000978C0B2814201D1012000E0002000BDC9
:1001D00010B52248002407E00178214A64B21219C0
:1001E0002C23D154401C641C64B20C2CF4DB00247E
:1001F00008E01B4864B200192C21405C194964B224
:100200000855641C64B2062CF3DB912015498871F3
:1002100000201449C871144800F024FF072406E0A8
:10022000104864B2015D114800F01CFF641E64B206
:10023000002CF5D50EA000F015FF10BD8C3900087C
:1002400000040048AC0F0020E50F0020E60F00205E
:10025000E30F0020E40F0020E20F0020ACF7FF1FA7
:10026000F80E00206C0F0020043D0008643D0008DB
:100270000D0A000010B582B0040001206946087024
:100280002088002816D0852843D08F286AD0A2283D
:1002900000D19EE0BB2800D1DAE0DB2800D12DE1BF
:1002A000EB2800D159E1F42800D177E1FD2800D1F5
:1002B00097E1A8E1FFF7FEFE80218900C24800F027
:1002C000C0FB00F087FCFFF783FF0821BF4800F068
:1002D0009EFCBF480078002804D0BD480078012863
:1002E00000D077E1CB48007800282AD1802189000E
:1002F000B54800F0A9FB8021C900B34800F0A4FB79
:10030000C54800F0EDF900F029FFC44908608520D8
:10031000208000F023FFC1490968401AFA218900B2
:10032000884201D2002074E180218900A64800F0B3
:1003300088FB8021C900A44800F083FB0120B54957
:100340000870B448007801282ED10421B448FFF782
:10035000F4FEB44800F0C4F900F000FFAF490860B3
:100360008F202080B0480078800709D400F0F6FE86
:10037000AA490968401AAD49884201D2002048E1E3
:10038000A9480078800709D5A7480078FD210140D9
:10039000A548017002209F49087005E0A44800F0BC
:1003A0009FF900209B4908709A48007802283AD1AA
:1003B0000D21A048FFF7C1FE9F4800F091F90A21E6
:1003C0009E48FFF7B5FE00F0C9FE94490860A220E0
:1003D000208095480078800709D400F0BFFE8F493F
:1003E0000968401A9149884201D2002011E18E48E3
:1003F0000078800711D58C480078FD2101408A489B
:10040000017073480078012803D1052081490870E4
:1004100009E004207F49087005E0894800F060F990
:1004200000207C4908707B480078042832D10721DD
:100430008448FFF782FE844800F052F90621834881
:10044000FFF776FE00F08AFE74490860BB2020802A
:1004500075480078800709D400F080FE6F4909686C
:10046000401A7249884201D20020D2E06E480078DA
:10047000800709D56C480078FD2101406A48017069
:1004800006206449087005E0714800F029F905204C
:10049000604908705F48007805281AD1072169482B
:1004A000FFF74BFE6B4800F01BF90B216A48FFF782
:1004B0003FFE5D480078FD2101405B48017001204E
:1004C0005449087042480078012802D10020404970
:1004D00008705048007806282ED107215F48FFF7A2
:1004E0002CFE5F4800F0FCF806215E48FFF720FE76
:1004F00000F034FE49490860DB2020804A4800783B
:10050000800708D400F02AFE44490968401A64288C
:1005100001D200207DE044480078800709D5424898
:100520000078FD21014040480170032039490870DE
:1005300002E00720374908703648007807281BD1A9
:1005400007214648FFF7F9FD474800F0C9F80B219D
:100550004648FFF7EDFDEB20208033480078800708
:1005600001D4002055E030480078FD2101402E489C
:10057000017000202749087026480078032800D021
:10058000A7E605213A48FFF7D8FD3A4800F0A8F859
:1005900006213948FFF7CCFDF4202080224800785E
:1005A000800701D4002034E01F480078FD2101407D
:1005B0001D48017000201749087002200449087086
:1005C0002E4800F08DF884E6000400486C0F0020EF
:1005D000E30F00202A480078022800D079E6FD20A9
:1005E000208000F0E8FA002805D12548007801288D
:1005F00001D000200DE000F0DEFA002800D168E60E
:1006000000F04EFC65E6002069460870002020805E
:10061000032016BDE20F00206C3D0008B00F002043
:10062000743D0008103D0008E40F0020881300000E
:10063000DC390008703C0008803C00081C3D0008C4
:10064000003A00087C3D0008283D0008843D000871
:10065000783B0008343D0008403D00088C3D000810
:100660000C3C0008943D0008903C00084C3D0008FC
:100670009C3D0008A03C0008A43D0008903B0008F9
:10068000E30F002010B5040020000100C9B20020D3
:1006900000F019FE200010BD80B50220009000235C
:1006A00000220021002000F014FE084800F018F895
:1006B000074800F015F8074800F012F8064800F067
:1006C0000FF8064800F00CF801BD0000183B0008C8
:1006D000303B0008603C0008483B0008603B0008D5
:1006E00010B5040004E02178002000F0ECFD641C4B
:1006F00020780028F7D110BD30B504000020002577
:100700000020002100200025944801680C200840AA
:10071000002806D0042807D0082808D00C2823D0A9
:1007200025E08F48206024E08D48206021E08B4840
:100730000068F025AD03054088480168C0204002EC
:100740000840AD0CAD1C002802D18648454309E0A5
:10075000854800680107090F491C814800F001FE27
:1007600068430500256004E08148206001E07C4882
:1007700020607A480168F020084000097B49085C45
:100780002168C140616075480168E020C0000840F0
:10079000000A7649085C6168C140A160564800685B
:1007A000C00502D47348E0600AE06C480068400469
:1007B00003D4A0684008E06002E0A0688008E06020
:1007C0004D480068400602D46B48206102E080205A
:1007D0000002206148480068C00602D46048606199
:1007E00001E020686061444800688007800F0028AD
:1007F00002D1A068A0611AE03F4800688007800F1E
:10080000012802D12068A06111E03B480068800700
:10081000800F022803D180200002A06107E0364843
:1008200000688007800F032801D14D48A06132483D
:100830000068C02189020140002902D1A068E0615E
:1008400023E02D480068C021890201408020400239
:10085000814202D12068E06117E027480068C0218A
:100860008902014080208002814203D18020000261
:10087000E0610AE020480068C02189020140C020F0
:100880008002814201D13648E0611B480068C021E6
:1008900009030140002902D1A068206223E0164824
:1008A0000068C021090301408020C002814202D1BA
:1008B0002068206217E010480068C0210903014049
:1008C00080200003814203D18020000220620AE0E0
:1008D00009480068C02109030140C020000381428B
:1008E00001D11F48206204480068000602D4204855
:1008F000606200E0656230BD3010024000B5C9B2F0
:10090000002905D01D49096808431C49086004E016
:100910001A49096881431948016000BD00B5C9B290
:10092000002905D01649096808431549086004E004
:100930001349096881431248016000BD00B5C9B27E
:10094000002905D00F49096808430E49086004E0F2
:100950000C49096881430B48016000BD0410024046
:1009600000127A0000093D002C1002409000002087
:10097000006CDC02809FD500128000001410024041
:10098000181002401C10024070B500220023002401
:10099000002246E0012393400C681C409C423FD15A
:1009A0000B79012B02D00B79022B19D18368032418
:1009B000150002267543AC40A343836083684C79DD
:1009C000150002267543AC401C43846083880124D3
:1009D0009440A343838083888C7994401C43848013
:1009E00003680324150002267543AC40A34303604B
:1009F00003680C79150002267543AC401C43046063
:100A0000C3680324150002267543AC40A343C360AA
:100A1000C368CC79150002267543AC401C43C46002
:100A2000521C102AB6D370BD00B502000020108AF7
:100A300089B20140002901D0012000E00020C0B2AD
:100A400000BD89B28161704701857047F0B4002311
:100A50000023D2B20B005B075B0F042463439A4070
:100A6000130089B2CA1004246243821889B2CC10E0
:100A700004256C430419246A0F250E007607760FAF
:100A800004277E43B540AC43146289B2CA100424E3
:100A900062438218126A134389B2C9100422514377
:100AA00040180362F0BC704700B589B00121802076
:100AB000C002FFF723FF01218020C001FFF72EFFB6
:100AC000002206212C48FFF7C1FF002207212A48F7
:100AD000FFF7BCFF022001A90871032001A948719A
:100AE000002001A98871012001A9C871402001904E
:100AF00001A92148FFF748FF8020019001A91E4865
:100B0000FFF742FF9620000203900020049000208F
:100B1000059000200690002008900C20079003A963
:100B2000164800F075FC1B206946087000206946D5
:100B30004870002069464870012069468870684600
:100B400000F054FD01220E490C4800F0EBFC01219D
:100B50000A4800F0C2FC09B000BD80B5C0B2010077
:100B600089B2064800F0CEFC4021044800F0FAFCAF
:100B70000028F9D001BD0000000400480038014001
:100B80000501050070B505000C00002604E0B6B2B2
:100B9000A85DFFF7E2FF761C3000210080B289B229
:100BA0008842F4D370BDFEE780B50100C9B2224887
:100BB00000F06CFD02BD80B5204800F08FFD0028DC
:100BC00004D11D4800F08AFD002801D0012000E07A
:100BD000002002BD10B582B0194800906C4600F0AC
:100BE00086FD164800F03CFD134800F039FD2088D2
:100BF0004249884203D101204149087002E00020A7
:100C00003F49087008213F4800F001F813BD10B5B6
:100C1000C9B209290EDA002206E0D2B2835C3A4C4E
:100C2000D2B2A418A370521C13000C00DBB2E4B2C1
:100C3000A342F2D310BD00000C00002000000020F1
:100C4000AAAA555510B582B00A0E6B461A700A0052
:100C5000120C6B465A700A0A6B469A706A46D1703B
:100C60005521294A1170AA21274A51708421264A08
:100C700091722549C8720020234908730420224933
:100C800048730E21204800F03BFD1F498873042261
:100C900069461D48807B00F044FD1B498873002491
:100CA00000E0641CA4B20E2C0ADA1748A4B2015D5D
:100CB000414800F0EBFCC0B20028F2D100201BE05C
:100CC000002400E0641CA4B2042C0ADA6846A4B232
:100CD000015D394800F0DAFCC0B20028F2D10020F2
:100CE0000AE00948817B344800F0D0FCC0B20028FB
:100CF00001D1002000E0012016BD00005555000084
:100D0000DF0F0020EC3C00084C0F002070B50C00F9
:100D100016005521604A1170AA215F4A5170862140
:100D20005D4A91725C49C872300080B2000A5A492B
:100D300008733000584948730E21574800F0E0FC12
:100D400055498873320092B221005348807B00F0ED
:100D5000E8FC51498873002500E06D1CADB20E2DF2
:100D60000ADA4D48ADB2415D134800F08FFCC0B2C5
:100D70000028F2D100201DE0002500E06D1C2800B5
:100D8000310080B289B2884209D2ADB2615D0A48B1
:100D900000F07CFCC0B20028F0D100200AE03E4800
:100DA000817B054800F072FCC0B2002801D1002010
:100DB00000E0012070BD00000000002017B581B0E8
:100DC000552035490870AA2033494870102032490F
:100DD000887200203049C87200202F490873032010
:100DE0002D4948730E212C4800F08AFC2A4988734B
:100DF000012201A92848807B00F093FC26498873D2
:100E0000012202A92448807B00F08BFC22498873D0
:100E1000012203A92048807B00F083FC1E498873CF
:100E2000002400E0641CA4B20E2C0ADA1A48A4B212
:100E3000015D1A4800F02AFCC0B20028F2D100205F
:100E400028E068460179154800F020FCC0B200286F
:100E500001D100201EE06846017A104800F016FC1F
:100E6000C0B2002801D1002014E06846017B0B4885
:100E700000F00CFCC0B2002801D100200AE00648B6
:100E8000817B064800F002FCC0B2002801D100209E
:100E900000E0012004B010BD4C0F00200000002035
:100EA00080B505E0664800F008FCC0B200F023FC05
:100EB000634800F0DAFB0028F4D1624800F0D5FB6B
:100EC000002800D1BBE05F4800F0F7FB5E490870E6
:100ED0005E48008800280AD15B4800785528ECD18C
:100EE00055205B490870012058490880E5E75748BC
:100EF000008801280ED154480078AA2806D1AA20DB
:100F000053494870022051490880D6E700204F49D4
:100F10000880D2E74D4800880D2821D14A48007842
:100F20004B494A4A1288885448480088401C47491F
:100F300008804748007B00024649088045480088F1
:100F40004349497B08434349088042480088652853
:100F5000B3DB00203D49088000203E490880ACE713
:100F60003A4800883B4909880E3188425BD13648AF
:100F700000783749354A1288885434480188344803
:100F800000F0BEFB34490870002030490880324828
:100F900000782D490978884206D000202B49088026
:100FA00000202C49088088E729482C4908602B48F4
:100FB0000068807A103824D0401E25D0401E26D0EC
:100FC000401E2AD0401E2BD06C38012803D9C01EE9
:100FD000042800D971E721480068007B03021F48FC
:100FE0000068407B03439BB21C48006802000E323D
:100FF0001A480068817A19480068C07A00F08FFCAE
:101000005BE700F069FC58E700F076FC55E714490F
:101010000F48807B00F071FC4FE700F06FFC4CE75D
:1010200000F07CFC49E7084800780949074A128823
:10103000885406480088401C044908803DE701BDEB
:10104000000000200C000020E10F0020CC0F002049
:10105000340E0020CE0F0020E00F0020A40F00204F
:10106000430E00200EB400B582B003A900916B4678
:1010700002000121034878440A3000F06BFC029919
:1010800006B00847252B0000F0B540B2002821D556
:10109000344B40B20207120F083A9208042462430C
:1010A000304C40B205072D0F083DAD0804267543AE
:1010B0006459FF258607B60F08277E43B540AC4329
:1010C0008901C9B28007800F082568438140214308
:1010D00099501AE0244A40B2830804246343D2584A
:1010E000FF238407A40F08256C43A3409A4389017A
:1010F000C9B283079B0F08246343994011431A4ADE
:1011000040B28008042358431150F0BD80B5411E01
:1011100080225204914201D301200EE0401E134967
:10112000086003210020C043FFF7AEFF00201049F4
:10113000086007200F490860002002BD80B50E48F6
:101140000068FA21890000F00CF9FFF7DFFF01BD0C
:101150000A480068401C0949086070470748006851
:10116000704700001CED00E000E400E014E000E047
:1011700018E000E010E000E0A0000020A80F002030
:10118000F2B582B004001500684818216143401888
:101190002C21405C8007800F022822D06348182150
:1011A00061434018806A6149182262438918496A7C
:1011B000471A7F1E002F05D55C481821614340184F
:1011C000006A3F18AF420CDA5848182161434018B2
:1011D0002C21405C8007800F002801D1002070E0A6
:1011E0003D00002D01D100206BE0002000904F4811
:1011F000182161434018806A4C49182262438918BB
:10120000496A471A7F1E002F05D5484818216143B7
:101210004018006A3F184548182161434018006A89
:101220004249182262438918496A401A87420ADBF8
:101230003E48182161434018006A3C491822624325
:101240008918496A471AAF4200DB2F00012F39DBAA
:101250003648182161434018406A3A0002990191CA
:10126000324918236343C918C9690E18019930001F
:1012700000F006FE0098C01900900298C019029074
:10128000ED1B2A48182161434018406AC0192749BC
:101290001822624389184862244818216143401883
:1012A000406A2249182262438918096A884205D196
:1012B00000201E491822624389184862002D96D1E9
:1012C0000098FEBDFCE702B501226946FFF758FF12
:1012D00001BD30B5154C2469A04224D200281AD093
:1012E000124C182545436419A16110491824444340
:1012F0000919CA610D491822424389180B6200215D
:101300000A4A18234343D21891620021074A18233E
:101310004343D21851620399044A182358431018C2
:10132000C162002001E00020C04330BD1800002051
:10133000F446002804D4494200F013F840426047C4
:101340004042002905D45FD000F00BF840424942EA
:101350006047494200F005F84942604703460B43A5
:10136000E6D40022030A8B420BD203098B4219D226
:1013700043088B422ED2411A00D2014652411046F8
:101380007047FF2209023FD012068B4205D312128A
:1013900009028B4201D31212090203098B4219D3AD
:1013A00000E0090AC3098B4201D3CB01C01A5241A4
:1013B00083098B4201D38B01C01A524143098B42EE
:1013C00001D34B01C01A524103098B4201D30B01D7
:1013D000C01A5241C3088B4201D3CB00C01A5241FC
:1013E00083088B4201D38B00C01A524143088B42C1
:1013F00001D34B00C01A5241884200D3401A5241D7
:10140000CFD201461046704708B500F067FD08BD11
:10141000F0B58BB004000D000027002600212068E5
:10142000012188432060616808003A4901400800B2
:10143000A9680143616021680800374901400B0039
:101440006868EA6802432969114319432160A16869
:10145000080032490140080069690143A1606846FB
:10146000FFF74AF92448844201D1069E0AE0234846
:10147000844201D1079E05E02148844201D1089EA3
:1014800000E0029E206800040CD502207043296809
:10149000FFF767FF07000220464330002968FFF787
:1014A00060FF08E030002968FFF75BFF07003000AD
:1014B0002968FFF756FF28684008814200D37F1C47
:1014C0002068000406D578084107490F14483840C1
:1014D0000F000743A7810BB0F0BD00B5C9B20029CA
:1014E00004D0016801220A43026003E0016801227E
:1014F0009143016000BD00000038014000440040FD
:1015000000480040C905C90D01857047808CC005A1
:10151000C00D7047FFCFFFFFF3E9FFFFFFFCFFFFA8
:10152000F0FF000070B50025002600240023030012
:1015300008000500ADB22D0AADB2CEB20124B44010
:10154000022D01D11B1D02E0032D00D10833D2B2C0
:10155000002A03D0186804431C6002E01868A04306
:10156000186070BD00B502000020D069014000295C
:1015700001D0012000E00020C0B200BD30B5020063
:10158000002400230024002008000400A4B2240A40
:10159000A4B2CBB2012518002B008340012C03D14B
:1015A00018001368034008E0022C03D118005368A8
:1015B000034002E01800936803400C0C0121200056
:1015C0000C0084402000D4690440002B03D0002C80
:1015D00001D0012000E00020C0B230BD0022002375
:1015E0000A0C0123934003627047FEE710B5002107
:1015F0008178002926D017490278921004235A4393
:101600008958FF2203789B079B0F082463439A4065
:1016100091430C0041788901C9B202789207920F78
:1016200008235A43914021430A4A03789B1004241B
:101630006343D15001210078C006C00E81400648A6
:10164000016006E001210078C006C00E8140034819
:10165000016010BD00E400E000E100E080E100E096
:101660000021018000214180704700B54188028837
:10167000914204D341880088081A80B205E041886D
:10168000028989180088081A80B200BD10B5428806
:10169000521C130004899BB2A34201D30389D21ABE
:1016A000130004889BB2A34201D1002004E04368E8
:1016B000448819554280012010BD00B501000A88F8
:1016C000521C10000B8980B2984201D30889121A6B
:1016D00048680B88C05C0A80C0B200BD80B5FFF7C7
:1016E000C4FF002801D0012000E0002002BD80B529
:1016F000FFF7DAF901BD80B5C0B2FFF72EFA01BDE0
:1017000010B50200002005E00D4BC0B21478444033
:10171000185D521C0B00591E9BB2002BF4D1C0B2B5
:1017200010BD10B505E0064BC0B20C784440185D02
:10173000491C13005A1E9BB2002BF4D1C0B210BD3D
:101740006037000880B50120002200211520FFF736
:10175000DDFAC0B2012801D1012000E0002002BD65
:1017600000B5C9B2002908D000206749C870002020
:101770006549087000206449887000BD38B50125AE
:101780001420614AD080087800064A781204024387
:10179000887800021043CC780443E4B221005B480F
:1017A000FFF760FCE00610D50120574908702006BD
:1017B00003D501205449487002E000205249487086
:1017C000A007800F5049887008E000204E4908703B
:1017D00000204D49487000204B498870EDB2012D22
:1017E00001D1012000E0002032BD80B501200021A0
:1017F00000214548817844480078012802D108003A
:101800001021014340484078012802D1080080217E
:101810000143C9B21620FFF715FAC0B2012801D161
:10182000012000E0002002BD70B50124002408E082
:10183000354DE4B22D192C26AD5D354EE4B235554B
:10184000641CE4B20C2CF3DB0024314D2C73C0B2C9
:10185000002803D001202E4C207302E000202C4CE5
:101860002073C9B2002905D02948007B0221014319
:1018700027480173D2B2002A05D02548007B0421F5
:10188000014323480173002406E0E4B2185D2049B7
:10189000E4B209194873641CE4B20A2CF5DB04981D
:1018A000010089B2090A1A4AD175194908760598C2
:1018B000010089B2090A164A5176154988761B2219
:1018C00013491720FFF722FA0400E4B2012C01D1DA
:1018D000012000E0002070BD70B500240025002626
:1018E0000C48FFF7BFFB3200D2B22900C9B220007A
:1018F000C0B2FFF763FA70BD7047704780B5064805
:10190000FFF7B0FB01BD0000F80E0020F83B000817
:10191000300F0020003B0008503C0008704780B5A5
:10192000C0B20300152B02D0162B0BD011E0C9B2A8
:10193000862906D0C9B2872903D11178C0B2FFF732
:101940000FFF06E0C9B2842903D11100C0B2FFF72E
:1019500015FF01BDF9B593B01400099108AD002041
:10196000E8610AE00998139A90470990002800D18D
:10197000C2E1E869401CE861641C2178080001D1DB
:10198000E869BBE12529EDD1002028616861A861E3
:1019900002E0010001200843641C21782029F8D0CE
:1019A00023290ED02B2904D02D2907D030290BD084
:1019B0000DE001000220084380B2EDE701000420A1
:1019C000F9E701000820F6E701001020F3E72A29D3
:1019D00012D114990968149A11600A68091D149BA0
:1019E00019606A62002A05D551426962010004202B
:1019F000084380B2641C12E0002169620AE06A6A4E
:101A00000A4B9A4205D093009A1852005118303967
:101A10006962641C21780A00303A0A2AEFD32178DF
:101A20002E2905D00021C943296223E0FFFFFF7F53
:101A3000641C21782A290AD114990968149A116022
:101A40000A68091D149B19602A62641C12E00021B7
:101A500029620AE02A6AAA4B9A4205D093009A1892
:101A60005200511830392962641C21780A00303A3A
:101A70000A2AEFD328852678310000BFA1A000F004
:101A80002EFA002801D0641C00E000262A202E54E3
:101A9000285C682806D12078682803D162202A2192
:101AA0006854641C02A8E8602678641C252E13D0B4
:101AB000582E40D0632E00D19EE0642E7AD0692E3D
:101AC00078D06F2E37D0702E28D0732E0AD0752E76
:101AD00031D0782E2FD09CE0012028612520694646
:101AE0000872A1E014980068149908600668001D47
:101AF00014990860AE602F6A002F03D5300000F003
:101B0000F8F909E03A000021300000F0FAF9002865
:101B100001D0801B00E03800686185E014980068FF
:101B2000149908600168001D149A1060089102A8B9
:101B3000A86078215CE02A20285C6C2801D11498E8
:101B400010E0712801D1149802E06A28149809D194
:101B50000268D21D072082431498026003CA149BB6
:101B60001A6005E0016801600868091D149A116097
:101B700008902A20285C682802D1089880B203E0E7
:101B8000622802D10898C0B208902820285C00077B
:101B900029D50898002826D020203043782822D143
:101BA0002869302102AA1154401C411C296102A954
:101BB0000E5418E014992A20285C00F0A7F8089029
:101BC000002802D528692D2109E0288D810702D53A
:101BD00028692B2103E0C00705D52869202102AA26
:101BE0001154401C286102A829694018A8603100DE
:101BF00008A800F0B1F817E00120286114980068E7
:101C0000149908600168001D149A106068460172FA
:101C10000AE001202861252069460872300003D0BF
:101C20000220286102A84670686A2969401AA969D9
:101C3000401A6969401A01902820285C400710D496
:101C4000202069460870019801280ADB019E0123C3
:101C50006A4608A9139800F0FBF800284CD1761EBC
:101C6000F5D12F6902AE002F0CD031780998139A64
:101C70009047099000283FD0E869401CE861761C35
:101C80007F1EF2D1302069460870AE69012E09DB53
:101C900001236A4608A9139800F0DAF800282BD12E
:101CA000761EF5D1AE686F69002F0CD03178099897
:101CB000139A9047099000281ED0E869401CE861FB
:101CC000761C7F1EF2D12820285C400700D454E601
:101CD0002020694608700198012800DA4DE6019E2F
:101CE00001236A4608A9139800F0B2F8002803D12E
:101CF000761E00D141E6F3E70020C04315B0F0BDE9
:101D0000FFFFFF7F686C747A4C000000622815D0DA
:101D100068280CD06C2818D0742816D07A2814D1D2
:101D20000A680A601068121D0A60002170470A687C
:101D30000A601068121D0A6000B20BE00A680A60AF
:101D40001068121D0A6040B204E00A680A60106858
:101D5000121D0A60C1177047F2B582B00400E06836
:101D600000906846007A6F2801D1082506E02022FD
:101D70000243782A01D00A2500E01025182721689F
:101D80000E00642801D0692803D1002901D57042D2
:101D90000600002E0DD1206A00280AD1082D31D16D
:101DA0002820205C00072DD5172730200099C87502
:101DB00028E07F1E019730002900FFF7D2FA30316A
:101DC000C9B23A2903DB6846007A513809180098ED
:101DD000C15530002900FFF7C4FA060004D0A068FE
:101DE0000099C9198842E4D3082D0BD12820205C22
:101DF000000707D50098C05D302803D07F1E302033
:101E00000099C8551820C01B60610099C919A160CC
:101E1000216A884206DA081AA061208D0B49014028
:101E2000218510E000290ED52821615C14220A408A
:101E3000102A08D1616A2269891AA269891A0F1ABF
:101E4000012F00DBA76103B0F0BD0000EFFF000031
:101E5000F1B50E0014000027002B0FD01D002178D3
:101E60007068009A90477060002806D0F069401CA6
:101E7000F061641C6D1E01D0F1E7FF433800F2BD34
:101E8000124207D08B0706D00B78491C0370401C08
:101E9000521EF7D87047830706D00B78491C037091
:101EA000401C521EF9D1704770B4103A03D378C960
:101EB000103A78C0FBD2530701D318C918C001D516
:101EC00008C908C0D20704D30B880380891C801C72
:101ED000002A01D50B78037070BC70477047C9B2F7
:101EE00000E0401C02788A4202D0002AF9D100208A
:101EF0007047010000E0491C0A78002AFBD1081A4B
:101F00007047C9B201E0401C521E002A03D003787A
:101F10008B42F8D1704700207047FEE710B582B0C1
:101F200004000120694608702088002802D0192882
:101F30000AD091E000F060FA00F0C6FAFFF70EF95F
:101F40009649086019202080FFF708F9934909682D
:101F5000401A642801D2002084E0914800780028CB
:101F600002D100208E4988708D48C07800280BD09F
:101F70008C4800780521FFF7F1F9002935D100F0F0
:101F800003FB00F01FFB30E085480078002816D1E5
:101F90008348C088002812D0834800781421FFF7B6
:101FA000DDF9002901D1012000E00020C0B200F0DD
:101FB000F7FA7D480078401C7B49087015E07848A6
:101FC000007801280AD176484078002801D0012005
:101FD00000E00020C0B200F0E3FA06E070480078AC
:101FE000002802D1002000F0DBFA6D48807800283C
:101FF00006D11E20AE490880002000F018FA10E03B
:10200000AB480088002808D0A9480088401EA8498D
:102010000880022000F00BFA03E06148807800F0AD
:1020200006FA5F480078012806D15D48807E0028C6
:1020300002D000F029FB81E759480078012806D139
:102040005748C07E002802D000F037FB76E754489E
:10205000807800F0C3FA71E700206946087000201C
:102060002080032016BD10B582B00400012069460F
:1020700008702088002802D0562806D087E0FFF795
:102080006DF8AA49086056202080FFF767F8A74935
:102090000968401AFA218900884201D200207CE0B8
:1020A00000F056FA3E48007900280BD03C480079F1
:1020B000401E3B4908713A480079002802D10020AF
:1020C0003749C8703648C088002804D03448C088D2
:1020D000401E3349C8803248C078002819D094483F
:1020E0000088401C924908800220FEF767F800280B
:1020F00001D0FFF727FB8E48008814280CD1002060
:102100008B4908802648C078002805D0FEF74FF894
:1021100002E00020864908802148807E002806D001
:1021200000201F49C876A248FEF79CFFA7E71C487D
:102130008078012827D11A480078012823D19D48AA
:102140000078401C9B4908709A480078052896DB67
:1021500000209849087000F00BFB00280FD096482B
:10216000FEF780FF0E48C07E002888D101200C4970
:10217000C8760A22C821C82000F05DFB7FE78F489F
:10218000FEF770FF7BE700208A49087077E70020A0
:102190006946087000202080032016BD7C0F0020B7
:1021A000F80E0020DC0F0020DD0F00201CB504001D
:1021B0000120694608702088002802D0A02806D097
:1021C0006FE0FEF7CBFF7E490860A0202080FEF77D
:1021D000C5FF7B490968401A7A49884201D200202C
:1021E00065E054480078012822D15248807E0028BA
:1021F0001ED07548008800280AD10A22C821C820AC
:1022000000F019FB70480088401C6F49088039E0D5
:102210006D48008896218900884203DB00206A49C6
:1022200008802FE068480088401C6749088029E042
:1022300040480078012822D13E48C07E00281ED0A8
:102240006148008800280AD10A22C821C82000F06D
:10225000F2FA5D480088401C5B49088012E05A4849
:10226000008896218900884203DB002056490880B7
:1022700008E055480088401C5349088002E00020CF
:10228000514908802B48406A80B20190002000909C
:102290004E4B2848827E2748C17E0020FFF7C4FAB3
:1022A0008FE700206946087000202080032016BDBB
:1022B000C60F002010B582B00400012069460870E6
:1022C0002088002802D0C72806D028E0FEF746FF65
:1022D0003F490860C7202080FEF740FF3C4909685D
:1022E000401A3C49884201D200201EE01148007883
:1022F0000128EBD10F48406A401C0E49486236481D
:1023000000F0E3FA0B48406A3449884203D30120C5
:1023100008498876DAE7002006498876D6E7002063
:102320006946087000202080032016BD800F002021
:10233000C80F0020F80E002080B500F0A7FA00F0CA
:102340001FFB00F025FA00202549088000202549C0
:1023500008800020244908800020244908800020AB
:10236000234908800020234908800322C821C8206F
:1023700000F061FA00F00AFB00F020FB00F01EFB09
:102380001748FFF7CBFD1748FFF76DFE1648FFF71C
:102390000DFF1648FFF78EFF00F010FB1448FDF705
:1023A00069FF144800F00EFB00F008FBE6E70000B0
:1023B000BC3C0008DE0F0020C83C0008D43C0008EC
:1023C000840F002060EA0000CA0F0020E03C0008F3
:1023D000880F002080EE3600180F0020AD0D0000A1
:1023E0008C0F0020900F0020940F0020980F0020E9
:1023F0009C0F0020A00F002000B583B00121802099
:102400000003FEF77BFAE0200002009001206946FD
:1024100008710320694648710020694688710220CE
:102420006946C87169462748FEF7AEFA07BD80B510
:10243000C0B2002805D0022823D012D3032830D000
:102440003EE0802109021F48FEF7FEFA8021C90103
:102450001C48FEF7F9FA802189011A48FEF7F4FAC0
:102460002EE0802109021748FEF7EBFA8021C9010E
:102470001448FEF7E9FA802189011248FEF7E4FAD0
:102480001EE0802109020F48FEF7DEFA8021C90113
:102490000C48FEF7D6FA802189010A48FEF7D4FAE3
:1024A0000EE0802109020748FEF7CEFA8021C9011B
:1024B0000448FEF7C9FA802189010248FEF7C1FAF3
:1024C00001BD00000008004800B583B00120694646
:1024D000087103206946487100206946887101200F
:1024E0006946C871012180208002FEF707FA0120A9
:1024F000009069469020C005FEF746FA0121802031
:10250000C002FEF7FBF98020400000906946924827
:10251000FEF73AFA012180208002FEF7EFF9F02061
:102520000001009069469020C005FEF72DFA07BD16
:1025300080B5C0B2002805D001219020C005FEF76B
:1025400080FA04E001219020C005FEF77DFA01BD6C
:1025500080B582480078FFF7EBFF804800780121C2
:1025600041407E48017001BD80B5C0B2002805D051
:10257000802149007848FEF767FA04E0802149008D
:102580007548FEF75EFA01BD80B575480078FFF723
:10259000EBFF73480078012141407148017001BD93
:1025A00080B5C0B2002806D08021C9009020C005A7
:1025B000FEF747FA05E08021C9009020C005FEF72C
:1025C00043FA01BD80B567480078FFF7E9FF654829
:1025D0000078012141406348017001BD80B5C0B25F
:1025E000002805D0022829D015D3032839D04AE085
:1025F000802109019020C005FEF726FA802189007C
:102600009020C005FEF720FA802149009020C005E7
:10261000FEF71AFA37E0802109019020C005FEF785
:1026200010FA802189009020C005FEF70DFA802164
:1026300049009020C005FEF707FA24E08021090137
:102640009020C005FEF7FDF9802189009020C0058B
:10265000FEF7F7F9802149009020C005FEF7F4F954
:1026600011E0802109019020C005FEF7EAF98021E0
:1026700089009020C005FEF7E4F9802149009020F0
:10268000C005FEF7DEF901BD80B537480078401C73
:1026900035490870344800780A2802DB00203249A6
:1026A000087031480078052803DA0020FFF796FF0C
:1026B00002E00320FFF792FF01BD80B52B480078B0
:1026C000401C2A490870294800780621FEF746FE7A
:1026D000C9B20029012906D9891E012916D9891EE6
:1026E000012926D937E0802109019020C005FEF795
:1026F000A8F9802189009020C005FEF7A5F9802166
:1027000049009020C005FEF79FF924E080210901CF
:102710009020C005FEF798F9802189009020C0051F
:10272000FEF78FF9802149009020C005FEF78CF953
:1027300011E0802109019020C005FEF785F9802174
:1027400089009020C005FEF77FF980214900902084
:10275000C005FEF776F901BD00040048D70F002040
:10276000D80F0020D90F0020DA0F0020DB0F002047
:1027700080B5802149010548FEF756F9002801D1AE
:10278000012000E0002002BD00000000000400481D
:1027900080B5012200213548FEF764FC00F058FAAC
:1027A00001BD80B532480078002843D03148008808
:1027B000002815D030480088401C2F4908802E483A
:1027C00000882C490988884234D100202A49088091
:1027D0000020284908800021284800F0E8FA29E074
:1027E00027480088002825D023480088401C22491B
:1027F0000880214800882249098888421AD100208F
:102800001D49088000201E49088019480078401E94
:10281000174908701648007800280BD0194800881E
:102820001449088018480088154908800121134878
:1028300000F0BDFA01BD70B505000C0016000021C6
:102840000E4800F0B4FA00200B4908800D480580BE
:102850000D48048007480580094804800448067034
:102860000121064800F0A3FA70BD0000443A0008B8
:10287000D00F0020B80F0020BC0F00200020004027
:10288000BA0F0020B40F0020B60F002080B53448E6
:1028900000F03BF83348006A002806D03248FEF7C3
:1028A000E1FB78202F49C88302E03048FEF7DAFBCD
:1028B0002C48406A2E49884203D301202949887652
:1028C00002E000202749887601BD38B505000020C8
:1028D00008212800FEF714FFC0B2A86000F01EFB1C
:1028E000244800F02EFB002409E02968A4B204204B
:1028F0006043204A801800F048FB2D1D641CA4B2E0
:10290000032CF2D300F016FB31BD10B504000020FB
:102910002000184A002104E013680360001D121D06
:10292000491C89B20329F7D308212000FEF7E8FEED
:10293000C0B2A168884212D00F48FEF793FB0F483F
:10294000FEF790FB2000002103E000220270401CF3
:10295000491C89B20C29F8D32000FFF7B6FF10BD3F
:10296000180F0020F80E0020D03B0008E43B0008C0
:10297000AD0D000000FC0008843A0008203C00086F
:1029800080B5FEF7DBFBFDF787FE01BD80B509488A
:102990000090094800F066FB032000F067FB0098F8
:1029A000400980B200F066FB00F068FB00F06AFBB3
:1029B00001BD0000409C00005555000080B500F0AE
:1029C0005DFB01BD1CB5040001206946087020882C
:1029D000002802D01A280AD023E100F061FB00F0A1
:1029E00052FDFEF7BBFB924908601A202080FEF7DB
:1029F000B5FB8F490968401A0A2801D2002016E168
:102A000000F076FB00F06DFB8A49087000F043FD92
:102A1000002800D18CE000F041FD874908808648FD
:102A200001888648FEF71EFB83480088312820D1A4
:102A30000122C821C820FFF7FEFE81480078002847
:102A40000DD101207E49087001207D4988707C48A5
:102A5000C08800286AD001207949487066E00020CB
:102A600077490870002076498870002074494870C2
:102A70005CE07348007801281DD16F480088212848
:102A800019D16F484078012808D10122C821C820F7
:102A9000FFF7D1FE00206A49487047E06848C088C7
:102AA000002843D00122C821C820FFF7C4FE01201E
:102AB000634948703AE06248007801280FD15E48C7
:102AC0000088A1280BD10122C821C820FFF7B3FE3E
:102AD00000205B49487001205949887026E0584819
:102AE000007801280FD154480088F1280BD1012229
:102AF000C821C820FFF79FFE0020514948700220DE
:102B00004F49887012E04E48007801280ED14A489B
:102B1000008861280AD10122C821C820FFF78BFE56
:102B2000002047494870032045498870FEF75DFE44
:102B300040480078812832D14148007801282ED1C0
:102B40000122FA214900FA204000FFF774FE3C48B8
:102B5000807E002817D00020394988760020384927
:102B600048623848FFF7B1FE3548406A80B20190AC
:102B700000200090344B3248827E3148C17E0020D4
:102B8000FEF752FE2DE73148FDF7AAFD01202C4942
:102B9000C870B4202A490871FDF709FB21E72548D0
:102BA0000078012800D01CE70122C821C820FFF7C7
:102BB00042FE2348807800280DD1012020498870EA
:102BC0001F48C088002802D001201D4948700120FC
:102BD0001B49087022E01A488078012806D102209B
:102BE0001749887000201649487017E0144880780B
:102BF000022806D10320124988700020104948702D
:102C00000CE00F488078032808D100200C49887018
:102C100000200B494870002009490870FEF7E5FDC7
:102C2000DFE600206946087000202080032016BDE2
:102C3000780F0020D40F0020C20F0020303C000885
:102C4000F80E0020180F0020B03C0008403C00089F
:102C500030B58BB000240025012180208002FDF7D3
:102C60004DFE10200090022069460871032069463D
:102C7000487100206946887101206946C87169461B
:102C80009020C005FDF780FE10219020C005FDF7C3
:102C9000DBFE042204219020C005FDF7D7FE254865
:102CA00000680009FA21C900FEF75BFB441EA4B2CC
:102CB000601EFA2149004843FA218900FEF751FBC2
:102CC0000500012180204000FDF738FE0F206946F5
:102CD0008883002007A94880A4B20894002007A98F
:102CE0000881002007A9887207A9134800F026F878
:102CF000702069460881012002A94880042002A9A9
:102D00008880ADB20495022002A98881002002A922
:102D1000C881002002A908828020800002A9488280
:102D200002A9054800F06DF80121034800F056F8AB
:102D30000BB030BDA00000200020004000B50022F4
:102D40000288224B984206D08023DB05984202D0AD
:102D50001F4B984205D113004F4A1A4013004A886E
:102D60001A431C4B984205D013004C4A1A401300DA
:102D70000A891A4302804A68C2620A880285134A95
:102D8000904208D0144A904205D0424A904202D064
:102D9000434A904201D1897A01860121818200BD96
:102DA00001858282704741627047406A704700B572
:102DB000C9B2002904D0018801220A43028003E03D
:102DC00001883B4A0A40028000BD0000002C0140FF
:102DD00000040040001000400040014000B5C9B2AE
:102DE000002907D04421415A802212020A4344217B
:102DF000425205E04421415A4904490C442281527F
:102E000000BD30B5002300240022028C284B134063
:102E10000384048C8288038B1D001F4B2B401D00F4
:102E2000244B2B401D000B882B4325001D4C2C40B0
:102E300025008C892C4325004C882C431E4DA8422C
:102E400008D01E4DA84205D0124DA84202D0144D04
:102E5000A84217D12500154C2C402500CC892C43C5
:102E60002500114C2C4025008C882C431500144A59
:102E70002A401500134A2A4015000A8A2A431500E1
:102E80004A8A2A438280038389684163048430BD6F
:102E900000000000004401408FFF0000FFFC000024
:102EA00000480140FDFF0000FBFF0000F7FF0000AD
:102EB000FEFF0000FCFF0000002C0140004001402C
:102EC000FFFE0000FFFD000000B5D2B2002A03D0D3
:102ED00082891143818102E082898A43828100BD17
:102EE00089B2CA430282704700B502000020002068
:102EF0000023108A0840928911400B0080B20028FC
:102F000004D09BB2002B01D0012000E00020C0B211
:102F100000BD89B2CA4302827047FEE700B535485A
:102F20000068000605D53448344908603448334900
:102F3000086000BD2F480068802101432D480160D2
:102F4000704710B504000420B020000300F076F8AC
:102F5000C0B2042817D12748006802210143254840
:102F6000016028480460234800684021014321484B
:102F70000160B020000300F061F81E4909680222D8
:102F800091431C4A1160C0B210BD38B505000C0059
:102F9000042000200090B020000300F04FF8C0B2E1
:102FA000042825D11348006801210143114801601C
:102FB00020002880B020000300F040F8C0B20428B0
:102FC00010D1AD1C00952000000C00990880B020A5
:102FD000000300F033F80749096801229143054ACC
:102FE000116005E00349096801229143014A11601B
:102FF000C0B232BD102002402301674504200240C8
:10300000AB89EFCD1420024000B504200A480068C7
:10301000C00701D501200CE007480068C00601D5B3
:10302000022006E004480068400701D5032000E0C4
:103030000420C0B200BD00000C20024010B5040006
:103040000420FFF7E1FF02E0FFF7DEFF641EC0B2DD
:10305000012801D1002CF7D1002C00D10520C0B2ED
:1030600010BDFEE780B2094908607047C0B2084948
:103070000860704780B207490860704706480349F6
:1030800008607047054801490860704700300040FB
:103090000430004008300040AAAA0000CCCC000058
:1030A00000B583B0012200212F48FDF7DBFF00208F
:1030B0006946087103206946487100206946887195
:1030C00001206946C871012180208002FDF716FCAD
:1030D00080204001009069469020C005FDF754FC17
:1030E00007BD224800780021204A1170C0B2704705
:1030F00080B5802149019020C005FDF795FC00288E
:1031000017D11B480078401C1949087018480078EE
:10311000652828DB174800881749084223D18120F9
:10312000124908701348008813490143114801806F
:1031300019E00F480078801F2C280BD201200B4982
:10314000087000200A4908700A4800880B490140AD
:103150000848018000200649087006480088074991
:1031600001400448018001BD643A0008D60F0020E8
:10317000D50F0020C40F002001800000FE7F00005A
:1031800000B585B001218020C002FDF7B7FB80208B
:1031900000020390002003A90871012003A9C8714F
:1031A00003A9C148FDF7F0FB01210120FDF7B6FBA3
:1031B0000F21012000F098F98020000201900020EA
:1031C00001A908710C2001A94871012001A9887189
:1031D00001A800F0B5F9072069460870002069468B
:1031E00048700120694688706846FEF7FFF905B00F
:1031F00000BD1FB501210220FDF7A0FBAB48006810
:10320000AB49FEF7AEF80400AA48029000206946D8
:103210008880002001A90881002001A9488001A917
:10322000A548FFF78BFD0122210089B2A248FFF7D4
:10323000B7FD0121A048FFF753FE012201219E485E
:10324000FFF742FE00219C48FFF7B1FD10206946C0
:1032500008700020694648700120694688706846F9
:10326000FEF7C4F91FBD80B501219348FFF73CFE6E
:1032700000280ED001219048FFF74BFE00218E4818
:10328000FFF795FD00218C48FFF78DFD00208B494D
:10329000087001BD80B500218748FFF788FD01BD9A
:1032A00080B501218448FFF782FD01BD80B58248C9
:1032B000FFF77BFD80B202BD80B500217E48FFF79D
:1032C00072FD01BD80B57D480078002803D002283A
:1032D00034D00DD3C8E07A48806880477848406988
:1032E00080477748C0688047012074490870BBE078
:1032F0007348806880477248006980477149088038
:103300006F48406980476F4800886F49401A6F498D
:10331000884209D200206B49088002206749087062
:103320006748C068804708E00020644908700020B2
:103330006749087000206349088095E0604880680C
:1033400080475F48006980475E4908805C48406963
:1033500080475C4800885F49401AFF2190318842CD
:103360003BD20220554908700020564908805A482F
:10337000006840005849086057480068012101432F
:103380005548016052480078401C51490870504827
:10339000007820281DD100204D49087000204749A1
:1033A00008704D4800784C49497808425CD14A4839
:1033B00080784949C978084256D14748C078000208
:1033C0004549497808434549088001204449087027
:1033D0004AE03B48C068804746E03A480088414997
:1033E000401AFF219031884235D2022033490870BB
:1033F0000020344908803848006840003649086099
:1034000033480078401C3249087031480078202841
:103410001DD100202E4908700020284908702E4830
:1034200000782D49497808421ED12B4880782A49D6
:10343000C978084218D12848C0780002264949783E
:103440000843264908800120254908700CE01C48E3
:10345000C068804708E0002018490870002019491A
:10346000088000201A49087001BD80B58020000244
:1034700000F0A9F8002805D08020000200F0B0F884
:10348000FFF720FF01BD80B50D48006880470C485C
:103490004068804701BD12480078704700201049FD
:1034A00008700E480088704700040048A000002003
:1034B00040420F00FFFF000000040040D10F002039
:1034C000E83A0008C00F0020ED2C00009F0F00001C
:1034D000D30F002003080000740F0020BE0F00204F
:1034E000D20F00209903000030B400220F228B0776
:1034F0009B0F042463439A40104BC9B28C100425DF
:103500006C431B5993430D4AC9B28C1004256C437C
:1035100013510A4AC9B28B1004246343D258C0B273
:103520008B079B0F0424634398401043034AC9B29E
:10353000891004235943505030BC704708000140A3
:1035400000B5002128498279002A35D0264A126820
:1035500003689A43244B1A60244A126803689A430A
:10356000224B1A60027989180A68036813430B60BA
:103570001F490968026891431D4A11601D49096885
:10358000026891431B4A1160417910290CD11849F6
:10359000096802680A4316490A6016490968006802
:1035A0000843144908600DE00F49427989180A68F8
:1035B00000681043086005E0027989180A6800680D
:1035C00082430A6000BD00B5010000200A4800687F
:1035D0000140002901D0012000E00020C0B200BD60
:1035E00005490860704700000004014004040140E0
:1035F000080401400C0401401404014080B54B480C
:10360000006801210143494801604948006849496F
:103610000140474801604548006847490140434828
:103620000160424800684549014040480160404807
:103630000068434901403E480160424800680F214C
:1036400088434049086040480068404901403E487E
:1036500001603F480068012188433D49086000201F
:103660003C49086000F001F801BDC0B500200190A0
:10367000002000902D4800688021490201432B481A
:1036800001602A4800688021890208400090019862
:10369000401C01900098002804D10198A021C90184
:1036A0008842EED121480068800302D501200090B5
:1036B00001E0002000900098012834D11120264913
:1036C00008601B4800681A490860194800681849D2
:1036D00008601748006821490140154801601448F6
:1036E0000068882149030143114801600F480068C0
:1036F0008021490401430D4801600C4800688001A5
:10370000FBD50B4800680321884309490860084835
:1037100000680221014306480160054800680C2149
:1037200001400829F9D103BD00000000001002404B
:10373000041002400CB8FF08FFFFF6FEFFFFFBFF7E
:10374000FFFFC0FF2C10024030100240ACFEFFFF14
:10375000341002400810024000200240FF7FC0FFEA
:1037600000316253C4F5A697B988DBEA7D4C1F2E61
:103770004372211087B6E5D4FACB98A93E0F5C6D51
:1037800086B7E4D5427320113F0E5D6CFBCA99A841
:10379000C5F4A796013063527C4D1E2FB889DAEB31
:1037A0003D0C5F6EF9C89BAA84B5E6D74071221321
:1037B0007E4F1C2DBA8BD8E9C7F6A5940332615011
:1037C000BB8AD9E87F4E1D2C02336051C6F7A49501
:1037D000F8C99AAB3C0D5E6F4170231285B4E7D6F1
:1037E0007A4B1829BE8FDCEDC3F2A19007366554E1
:1037F00039085B6AFDCC9FAE80B1E2D344752617D1
:10380000FCCD9EAF38095A6B4574271681B0E3D2C0
:10381000BF8EDDEC7B4A192806376455C2F3A091B0
:103820004776251483B2E1D0FECF9CAD3A0B5869A0
:1038300004356657C0F1A293BD8CDFFE79481B2A80
:10384000C1F0A3920534675678491A2BBC8DDEEF80
:1038500082B3E0D1467724153B0A5968FFCE9DAC70
:10386000704700B5FEE77047704780B5FDF770FC04
:10387000FEF797FF01BD80B513491448FDF77EFEA2
:10388000002805D01148FDF741FEC0B2FCF75DFCF1
:1038900008210E48FDF766FE002803D00C490B48AE
:1038A000FDF79CFE01BD80B507490A48FDF766FE9D
:1038B00008210848FDF756FE002803D004490548B2
:1038C000FDF78CFE01BD0000050105000038014038
:1038D0000003030000440040094880F308880420E6
:1038E0000168090E1F22914205D10648012101609D
:1038F0000548002101600548804705480047000051
:10390000E80800201810024000000140FD350008C2
:10391000593D000870B40121002213E00468001D25
:103920000C4202D04D466D1E64192260241D1B1FDF
:10393000042BFAD225009E0701D52280AD1C0B4036
:1039400000D02A700368001D002BE7D170BC7047BF
:1039500030B501684118446862088A188368E40732
:1039600001D54C461B19914201D10C3030BD0C7869
:1039700064B2491C0D78491C1D705B1C002C02D5DB
:10398000641CF9D1EFE7641EF4D5ECE746656942A3
:1039900069405A6967426565204472697665723A82
:1039A00056302E312E3120627920383065626F79A1
:1039B0000D0A000010B5074979441831064C7C44C3
:1039C000163404E0081D0A68891888470100A142DE
:1039D000F8D110BD500000006C00000077616974E0
:1039E00020494545452054696D65204F75742C74F8
:1039F000727920746F2072657365740D0A0000007F
:103A0000696E746F204154206D6F64652066616932
:103A10006C2C74727920746F2072657365740D0A52
:103A200000000000F1FEFFFF00070000E808002092
:103A3000000000001DFFFFFF8C030000E6000000F7
:103A40000000002042656570204D6F64756C652034
:103A50005625642E256420627920383065626F799E
:103A60000D0A00004B6579204D6F64756C6520561A
:103A700025642E256420627920383065626F790DC7
:103A80000A00000072656164205661726961626CAF
:103A9000652043524338206661696C0D0A000000BE
:103AA00000F00BF8002801D0FFF784FF002000BFD2
:103AB00000BFFEF741FC00F002F80120704780B51E
:103AC00000F002F801BDFEE70746384600F002F8B4
:103AD000FBE7FEE780B500BF00BF024A11001820D7
:103AE000ABBEFBE72600020081310008F33100087D
:103AF00095320008A1320008AD320008B932000842
:103B0000476F7420496E717569726520446576202F
:103B1000496E666F0D0A00002D2D2D2D2D2D2D2D9A
:103B20002D2D2D2D2D2D2D2D2D2D2D2D2D0D0A0035
:103B300042617369632053797374656D3A56312E0F
:103B4000312E340D0A0000004275696C643A32303F
:103B5000313730343232543039333234350D0A0093
:103B6000417574686F723A383065626F7940535AA4
:103B70000D0A0D0A00000000636865636B20504960
:103B8000442C746F20736574205049440D0A000062
:103B9000696E20746F207472616E736D69737375D2
:103BA0006F6E0D0A0000000038B505000C00200003
:103BB00000F006F8A04200D00025280032BDFEE744
:103BC00080B50249FCF75EFD02BD00BFA4000020E5
:103BD0006C6173744169725377697463683A4F4ECC
:103BE0000D0A00006C6173744169725377697463E4
:103BF000683A4F46460D0A00476F74204374723A84
:103C00003078253032580D0A000000006368656383
:103C10006B2064737420616464720D0A00000000FC
:103C20007365742064656661756C7409000000003A
:103C300049524B65793A253034580D0A000000008E
:103C400072656E6574696E67202E2E2E0D0A000057
:103C5000476F74204865617420426561740D0A00E5
:103C60004465763A56312E302E300D0A00000000A1
:103C700046524F4D20545020544F204154000000D4
:103C800073657420545020544F2041540D0A000095
:103C90007365742064737420616464720D0A00009B
:103CA000736574207470206D6F64650D0A000000E8
:103CB00030303030303030303030000061646A20D5
:103CC0004149530D0A000000414953204F6E0D0A2F
:103CD00000000000414953204F66660D0A000000B5
:103CE000303030303030303030300000313233342A
:103CF00035363738000000005465726D696E616CAE
:103D0000000000004D4350205549443A0000000097
:103D10007761697420494545450D0A00254642658D
:103D2000652641540D0A0000636865636B205049A5
:103D3000440D0A00736574205049440D0A000000C8
:103D40004154504420464646460D0A0041544453CF
:103D500020303030300D0A0000BF00BF00BF00BF70
:103D6000FFF79EFE25303258200000007265736513
:103D7000740D0A0049454545000000004F4B2046A0
:103D800046464600415450440D0A00004F4B203037
:103D900030303000415444530D0A00005450204F3D
:103DA0004B000000415454500D0A0000FEE7FEE7AE
:103DB000FEE7FEE7FEE7FEE7FEE7FEE7FEE7FEE7DB
:103DC000FEE7FEE7FC0004E80C0020D7F90004C081
:103DD0000D002073FD0009534547474552205254BA
:103DE00054FA000002FD000002FD0009F83C000842
:103DF000E80800200004DA0008F83C00085C0F0026
:103E00002010D5002F010203040102030406070855
:103E100009006CDC0202040101A80E0020F80E006B
:103E200020A80E0020A80E0020A80E0020E100000F
:073E300020C8000020E000A3
:0400000508003D5959
:00000001FF
